:020000040800F2
:1000000090070020290200086B1800081917000843
:1000100069180008BF0400089D1C000800000000CB
:100020000000000000000000000000006F18000841
:10003000C1040008000000006D18000871180008D5
:10004000430200084302000843020008430200087C
:10005000430200084302000843020008430200086C
:10006000430200084302000843020008430200085C
:10007000430200084302000843020008430200084C
:10008000430200084302000843020008430200083C
:10009000430200084302000843020008430200082C
:1000A000430200084302000843020008430200081C
:1000B000430200084302000843020008430200080C
:1000C00043020008430200084302000843020008FC
:1000D0004302000843020008851C0008911C000828
:1000E00043020008430200084302000843020008DC
:1000F00043020008430200084302000843020008CC
:1001000043020008430200084302000843020008BB
:1001100043020008D519000801190008430200082D
:10012000430200084302000843020008430200089B
:10013000430200084302000843020008430200088B
:10014000430200084302000843020008430200087B
:10015000430200084302000843020008430200086B
:10016000430200084302000843020008430200085B
:100170004302000843020008430200080000000098
:10018000430200084302000800F002F800F03CF8C7
:100190000AA090E8000C82448344AAF10107DA45E2
:1001A00001D100F031F8AFF2090EBAE80F0013F0F8
:1001B000010F18BFFB1A43F0010318471C1F000072
:1001C0003C1F0000103A24BF78C878C1FAD8520703
:1001D00024BF30C830C144BF04680C6070470000C1
:1001E0000023002400250026103A28BF78C1FBD840
:1001F000520728BF30C148BF0B6070471FB501F0E0
:1002000059FF1FBD10B510BD00F024F91146FFF7CE
:10021000F5FF01F055FD00F042F903B4FFF7F2FFDE
:1002200003BC00F045F90000094880470948004731
:10023000FEE7FEE7FEE7FEE7FEE7FEE7FEE7FEE796
:10024000FEE7FEE704480549054A064B70470000F3
:10025000F118000889010008900100209007002093
:10026000900300209003002053EA020C00F0698004
:100270002DE9F04B4FF00006002B1FBFB3FA83F5BA
:1002800003FA05F424FA05F65E4012BF1643B2FAEB
:1002900082F502FA05F4C5F120051EBF22FA05FC1D
:1002A00044EA0C04203556EA044C4FEA144418BFC3
:1002B000641C4FF000084FF00009904271EB030CF2
:1002C00039D3002919BFB1FA81F701FA07F6B0FA5C
:1002D00080F700FA07F6C7F120071EBF20FA07FCD7
:1002E00046EA0C062037B6FBF4FCA7EB0507103FE7
:1002F00007F01F0BCBF120060CFA0BFB2CFA06F6CD
:1003000044BFB3460026202FA4BF5E464FF0000B2B
:100310005BEA060C08BF4FF0010B19EB0B09ABFBB6
:10032000027C48EB0608C01B06FB02CC0BFB03CC8F
:1003300071EB0C01C1E70B46024641464846BDE859
:10034000F08B13B54FF000004FF00001AFF30080C9
:10035000BDE81C40704710B5431C02E010F8011BBB
:1003600071B18107FAD14FF0013202C88C1A8C4367
:1003700014EAC211F9D0C01A0A0603D0C01E10BD7B
:10038000C01A10BD0A0401D0801E10BD0902FCD0A5
:10039000401E10BD10B5203AC0F00B80B1E81850D7
:1003A000203AA0E81850B1E81850A0E81850BFF45F
:1003B000F5AF5FEA027C24BFB1E81850A0E81850FE
:1003C00044BF18C918C0BDE810405FEA827C24BF52
:1003D00051F8043B40F8043B08BF7047D20728BFE0
:1003E00031F8023B48BF11F8012B28BF20F8023B2F
:1003F00048BF00F8012B70474FF0000200B51346CC
:1004000094469646203922BFA0E80C50A0E80C5034
:10041000B1F12001BFF4F7AF090728BFA0E80C50E5
:1004200048BF0CC05DF804EB890028BF40F8042BDE
:1004300008BF704748BF20F8022B11F0804F18BF4B
:1004400000F8012B704770477047704700487047AD
:100450002C0100207546FFF7F9FFAE4605006946FE
:10046000534620F00700854618B020B5FFF7EAFE96
:10047000BDE820404FF000064FF000074FF00008A5
:100480004FF0000B21F00701AC46ACE8C009ACE826
:10049000C009ACE8C009ACE8C0098D46704710B58A
:1004A0000446AFF300802046BDE81040FFF7B5BE1C
:1004B00001491820ABBEFEE7260002007047FEE7A8
:1004C000704772B6FEE72DE9F0410446876D00F0F3
:1004D0005FF9064694F835000025022806D08020F2
:1004E000606584F834500120BDE8F081206801681F
:1004F00021F0160101602068416921F0800141610D
:10050000206C08B9A06C20B12068016821F00801B6
:1005100001602068016821F0010101600CE000F039
:1005200037F9801B052807D920206065032084F84F
:10053000350084F83450D7E720680068C007EED152
:1005400094F85C103F208840B860012084F83500A2
:1005500084F834500020C7E790F83510022903D002
:100560008021416501207047052180F83510006821
:10057000016821F0010101600020704770B5044658
:1005800000F006F90546601C02D0044800780444D7
:1005900000F0FEF8401BA042FAD370BD0800002016
:1005A0002DE9F84FDFF8BCA10022012503264FF00A
:1005B0000F090AF1040BAAF1040E00BF0B6805FA3B
:1005C00002F42340A34270D10F7907F00307012FF3
:1005D00001D0022F16D187684FEA420806FA08FCBC
:1005E00027EA0C07D1F80CC00CFA08FC4CEA070CFF
:1005F000C0F808C04768A7430C79C4F300149440BE
:100600003C4344600C79E443A4070AD0C4684FEA31
:10061000420C06FA0CF7BC438F6807FA0CF7274325
:10062000C7600C7904F00304022C12D1D40800EB4B
:10063000840CDCF820405707FF0E09FA07F824EA7B
:100640000804D1F8108008FA07F848EA0408CCF842
:10065000208004684FEA420C06FA0CF7BC430F797D
:1006600007F0030707FA0CF7274307604C6814F4F8
:10067000403F70D03C4C276847F48047276024688F
:1006800022F0030704F480440094384C07EB040C78
:10069000DCF8084897074FEA177809FA08F7BC43CF
:1006A000334FB84202D1002724E054E0314FB84222
:1006B00001D101271EE0304FB84201D1022719E0D5
:1006C0002E4FB84201D1032714E02D4FB84201D17B
:1006D00004270FE02B4FB84201D105270AE02A4F2B
:1006E000B84201D1062705E0284FB84201D10727BB
:1006F00000E0082707FA08F72743CCF80878DAF86B
:1007000000405746D1F804C09C435FEACC2C00D58A
:100710001C433C60DBF800405F46D1F804C09C43BA
:100720005FEA8C2C00D51C433C60DEF80040774625
:10073000D1F804C09C435FEA8C3C00D51C433C606C
:10074000084F083F3C68D1F804C09C435FEACC3CAA
:1007500000D51C433C60521C102AFFF42FAFBDE8AB
:10076000F88F0000083C014044380240003001404E
:10077000000002400004024000080240000C024059
:10078000001002400014024000180240001C024009
:100790000148806870470000080000200248816816
:1007A0000278114481607047080000200B4810B5A2
:1007B000016841F400710160016841F480610160E9
:1007C000016841F480710160032000F06FF80F2090
:1007D00000F006F800F024F8002010BD003C0240B4
:1007E00070B50D4D04464FF47A712878B1FBF0F0E6
:1007F0000A490968B1FBF0F000F00CFB48B9102C75
:1008000007D200222146501E00F030F800206C6014
:1008100070BD012070BD0000080000201400002001
:100820000A4808B5016841F480410160006800F49D
:10083000804000900548001F016841F08051016030
:10084000006800F08050009008BD0000443802406D
:10085000002809DB00F01F020121914040098000BF
:1008600000F1E020C0F8001170470000F0B40E4B1A
:100870001B680C46C3F30223C3F10705042D00D9FE
:100880000425191D072901D2002300E0DB1E0126E3
:1008900006FA05F1491E214099409E40761E1640F9
:1008A0003143F0BC01F0FBB90CED00E0064900F06B
:1008B000070208684FF6FF03184040EA0220034A87
:1008C00010430860704700000CED00E00000FA05DE
:1008D0002DE9F0470E46050065D0DFF81481D8F801
:1008E0000000F7B200F00700B04207D288F80070AD
:1008F000D8F8000000F00700B04254D128683D4C01
:10090000810712D5400703D5206840F4E0502060ED
:100910002878000703D5206840F4604020602068F4
:10092000A96820F0F000084320602878C0072DD087
:10093000304968680839012812D0022813D00328EA
:1009400011D00968890700292DDA216821F00301F7
:1009500001432160FFF71CFF814641F2883A0EE017
:1009600009688903EFE709688901ECE7FFF710FFE1
:10097000A0EB0901514502D90320BDE8F0872068AA
:10098000696800F00C00B0EB810FEFD1D8F80010CF
:10099000404601F00701B14207D90770006800F036
:1009A0000700B04201D00120E7E72878400705D5CD
:1009B0002068E96820F4E0500843206028780007A8
:1009C00006D52068296920F4604040EAC100206013
:1009D00000F038F82168084AC1F30311515CC8409F
:1009E0000649086006480068FFF7FAFE0020C4E7E1
:1009F000003C024008380240BE20000814000020DD
:100A00000C0000200448054900680968044AC1F345
:100A10008221515CC8407047140000200838024011
:100A2000CE2000080448054900680968044AC1F35B
:100A30004231515CC8407047140000200838024021
:100A4000CE200008154810B5006810F00C021448BC
:100A500013D01449042A0FD0082A0ED10F4C241F9A
:100A60002268236802F03F025B0207D52068C0F3CA
:100A70008810A0FB010106E0084610BD2168C1F303
:100A80008811A1FB00010023FFF7EEFB2168C1F3F1
:100A90000141491C4900B0FBF1F010BD083802408B
:100AA0000024F40040787D012DE9F84F04006ED059
:100AB0002078DFF84C93C007A9F104054AD009F16A
:100AC00004000168C1F38101012908D00068C0F366
:100AD000810002280AD1D9F80000400206D5286812
:100AE000800337D560680028E1D033E06068B0F556
:100AF000803F10D0B0F5A02F286810D020F48030AF
:100B00002860286820F4802028606068A8B1FFF77A
:100B10003FFE06460DE0286840F48030F4E740F4DC
:100B200080202860F7E700BFFFF732FE801B6428B3
:100B300073D828688003F7D50CE0FFF729FE064636
:100B400005E000BFFFF724FE801B6428F0D828686A
:100B50008003F7D42078DFF8AC8280074FF0000ADA
:100B60003ED5A748001D016811F00C0F08D00068A1
:100B7000C0F3810002280BD1D9F80000400207D44D
:100B80002868800716D5E068012800D112E033E11B
:100B9000E068B8B10120C8F80000FFF7F9FD06468B
:100BA00005E000BFFFF7F4FD801B0228C0D82868CD
:100BB0008007F7D52868216920F0F80040EAC100D5
:100BC00028600DE0C8F800A0FFF7E2FD064604E04B
:100BD000FFF7DEFD801B02281FD828688007F7D4A6
:100BE0002078000722D5864F87486169703771B138
:100BF00001210160FFF7CCFD064604E0FFF7C8FDC8
:100C0000801B022809D838688007F7D50EE0C0F8A5
:100C100000A0FFF7BDFD064605E082E0FFF7B8FD46
:100C2000801B02287DD838688007F7D420784007D9
:100C300068D5DFF8CCB100270BF13C0BDBF80000E6
:100C4000C0000BD4DBF8001041F08051CBF800104D
:100C5000DBF80000012700F0805000906B4E3068F8
:100C6000C00510D4306840F480703060FFF790FD0C
:100C7000009005E0FFF78CFD0099401A022850D83B
:100C80003068C005F6D55E4EA0686C3601280FD0DE
:100C90000528306810D020F001003060306820F066
:100CA00004003060A068B8B1FFF772FD00900FE05B
:100CB000306840F00100F4E740F004003060F7E7EE
:100CC000FFF766FD0099411A41F28830814266D8EB
:100CD00030688007F4D50EE0FFF75AFD009007E07A
:100CE000FFF756FD0099411A41F28830814256D8EB
:100CF00030688007F4D42FB1DBF8001021F0805168
:100D0000CBF80010A069C8B33D49091D0968C1F3BB
:100D1000810102294AD00228504607D0C8F8600055
:100D200000E03CE0FFF734FD04463BE04746C8F8EE
:100D30006000FFF72DFD064605E000BFFFF728FD28
:100D4000801B02282BD828688001F7D4D4E907013A
:100D50000843A16A2E4A490802EB0141626A41EA4E
:100D60008211084394F82C1040EA0161C9F8001080
:100D700001203866FFF70CFD044606E03EE000BFA8
:100D8000FFF706FD001B022809D828688001F7D567
:100D900034E000BFFFF7FCFC001B022802D903204F
:100DA000BDE8F88F28688001F4D427E00128F7D047
:100DB000D9F80000E26900F4800191421CD1226A56
:100DC00000F03F01914217D147F6C071626A0140BD
:100DD000B1EB821F10D1A26A4FF0FF3300F4403113
:100DE00003EB5202B1EB024F06D194F82C1000F045
:100DF0007060B0EB016F01D00120D1E70020CFE798
:100E00000438024000004742800E47420070004014
:100E10000000FFFF10B5401EB0F1807F01D301201C
:100E200010BD4FF0E02460610F21601700F037FF24
:100E30000020A06107202061002010BD704770478E
:100E400070B590F83C20012A32D0012480F83C4053
:100E5000022280F83D2003685A689D6822F07006DF
:100E60000A6832435A60134B02689A4214D0B2F1B6
:100E7000804F11D0104B9A420ED0104B9A420BD09B
:100E80000F4B9A4208D00F4B9A4205D00E4B9A4214
:100E900002D00E4B9A4204D1496825F080031943D1
:100EA000916080F83D40002180F83C10084670BDFC
:100EB000022070BD00000140000400400008004016
:100EC000000C0040000401400040014000180040B8
:100ED00010B5040003D094F83D0010B107E00120E4
:100EE00010BD002084F83C00204600F01FF80220CE
:100EF00084F83D00211D206800F008FD012084F8E1
:100F0000460084F83E0084F83F0084F8400084F8EE
:100F1000410084F8420084F8430084F8440084F8D7
:100F2000450084F83D00002010BD000008B50068B1
:100F30000B49884212D10B48016841F01001016051
:100F40000068002200F01000009011463620FFF7E4
:100F50008DFCBDE808403620FFF77ABC08BD0000D4
:100F6000001000404038024090F83D10012901D0A7
:100F700001207047022180F83D100168CA6842F0E4
:100F80000102CA6000681149884214D0B0F1804F54
:100F900011D00F4988420ED00E4988420BD00E491D
:100FA000884208D00D49884205D00D49884202D0B8
:100FB0000C49884204D1816801F00701062903D059
:100FC000016841F00101016000207047000001400C
:100FD0000004004000080040000C004000040140F4
:100FE0000040014000180040704770B5044600689A
:100FF00001694FF00005C943890715D4C168C94389
:10100000890711D4E91E01610120207720688069D9
:101010008007204602D0FFF7E7FF04E000F098F8D1
:10102000204600F096F8257720680169C9434907F2
:1010300017D4C168C943490713D46FF00401016193
:10104000022020772068806910F4407F204602D07B
:10105000FFF7CAFF04E000F07BF8204600F079F8C3
:10106000257720680169C943090716D4C168C943B7
:10107000090712D46FF0080101610420207720686D
:10108000C0698007204602D0FFF7AEFF04E000F001
:101090005FF8204600F05DF8257720680169C943B4
:1010A000C90617D4C168C943C90613D46FF010012B
:1010B0000161082020772068C06910F4407F204635
:1010C00002D0FFF791FF04E000F042F8204600F064
:1010D00040F8257720680169C943C90708D1C1686C
:1010E000C943C90704D1891E0161204600F032F8C6
:1010F00020680169C943090609D4C168C9430906C2
:1011000005D46FF0800101612046FFF797FE20684B
:101110000169C943490609D4C168C943490605D4D0
:101120006FF040010161204600F020F8206801695D
:10113000C94389060BD4C168C943890607D46FF037
:10114000200101612046BDE87040FFF778BE70BD08
:101150007047704700680349884202D10249012064
:101160000870704700100040000000207047704772
:10117000704710F83D1F407808437047F8B5016884
:1011800004460868CA684B6910F00F0F4FF000055D
:1011900059D003F0010602F49077374365D0C107B8
:1011A00005D0D10503D5216C41F00101216441072F
:1011B00005D5D90703D0216C41F0020121648107D4
:1011C00005D5D90703D0216C41F004012164010742
:1011D00007D502F02001314303D0216C41F0080112
:1011E0002164216C00293AD0800604D5900602D5EE
:1011F000204600F024FC20684069216CC0F3801078
:10120000090700D460B3204600F0F2FB2068406973
:10121000400621D52068143050E8001F21F040011D
:1012200040E80012002AF5D1A06BA8B16C49016515
:10123000A06BFFF791F9002811D0A06B016D01B0F0
:10124000BDE8F040084783060FD593060DD520462C
:10125000BDE8F84000F0F3BB2046FFF789FFF8BD7A
:101260002046FFF785FF2564F8BD266B2023012E5D
:1012700079D1C60677D5D60675D508684868009036
:101280004869400640D5A16B086840680004000C1E
:10129000EAD0A28D8242E7D9E085C869B0F5807FA7
:1012A0002DD020680C3050E8001F21F4807140E8F8
:1012B0000012002AF5D12068143050E8001F21F0F8
:1012C000010140E80012002AF5D12068143050E8EE
:1012D000001F21F0400140E80012002AF5D184F8F7
:1012E0003E30256320680C3050E8001F21F01001CB
:1012F00040E80012002AF5D1A06BFFF7E4F8A08DBA
:10130000E18D401A81B229E0A08DE18D401A81B2B1
:10131000E08D0028A8D00029A6D020680C3050E825
:10132000002F22F4907240E80026002EF5D12068AC
:10133000143050E8002F22F0010240E80026002E71
:10134000F5D184F83E30256320680C3050E8002F3A
:1013500022F0100240E80023002BF5D12046FFF7D1
:1013600006FFF8BDFFE705062BD5150629D594F82D
:101370003D002128F5D1A068B0F5805F01D120693A
:10138000B0B1206A411C2162216800784860E08C7D
:10139000401E0004000CE084E3D12068C16821F005
:1013A0008001C1602068C16841F04001C160D8E798
:1013B000206A0088C0F308004860206A801C206210
:1013C000E5E74006CDD55006CBD5CA68204622F0C9
:1013D0004002CA6084F83D3000F09DF9C1E700008A
:1013E000E119000870B5040004D094F83D00002510
:1013F00010B106E0012070BD84F83C50204600F09A
:1014000023F8242084F83D002068C16821F40051AD
:10141000C160204600F074FB2068016921F490410E
:1014200001612068416921F02A0141612068C16899
:1014300041F40051C1602564202084F83D0084F807
:101440003E00002070BD0000F0B587B004461421B6
:101450006846FEF7D1FF4648444A236800244449C1
:10146000103802250326934233D10A6842F48012D1
:101470000A60096801F480110591016841F00401D6
:101480000160016801F004010591016841F0080163
:101490000160006802AA00F0080005909814CDE9E8
:1014A0000005082782E8D00069463248FFF778F83F
:1014B0000420CDE9000502AA694682E8D0002E4842
:1014C000FFF76EF8002202213520FFF7CFF9352013
:1014D00023E02A4F0722BB4223D10B6843F4003399
:1014E0000B60096801F400310591016841F00101C8
:1014F00001600068029400F0010005900C20CDE925
:101500000005CDE9036269461D48FFF749F800224E
:1015100011462620FFF7AAF92620FFF799F907B010
:10152000F0BD184FBB42FAD10B6843F480230B6027
:10153000096801F480210591016841F00201016010
:101540000068029400F0020005904FF44060CDE97D
:101550000005CDE9036269460B48FFF721F8002238
:1015600011462720FFF782F92720D6E700500040D8
:101570004038024000080240000C02400044004095
:101580000000024000480040000402402DE9F84FEE
:10159000044690F83E009A4616460D46202853D140
:1015A000FDB1F6B194F83C0001284DD0012084F83B
:1015B0003C0000272764222084F83E002763FFF7C1
:1015C000E7F8A6858146E685A0684FF48058404537
:1015D00001D1206940B12E465FF0000584F83C70CF
:1015E00027E00120BDE8F88F0026F7E74B460022F0
:1015F00020212046CDF800A000F008FB08B1032010
:10160000F0E726B1A06840451BD038B108E020685B
:101610004068C0F3080025F8020B07E0206980B19C
:101620002068406800F07F0006F8010BE08D401E46
:10163000E085E08D0028D9D1202084F83E000020EC
:10164000D0E720684068EFE70220CBE70068034955
:10165000884202D102490120487070470050004082
:10166000000000202DE9F843044690F83D001F4695
:1016700016460D4620284CD1C5B1BEB194F83C00A9
:10168000012846D0012084F83C004FF00008C4F83F
:101690004080212084F83D00FFF77AF8A684814637
:1016A000E684A068B0F5805F03D004E00120BDE8C7
:1016B000F883206928B12E465FF0000584F83C804D
:1016C0000EE00026FAE78021204600F09FFAA0B93C
:1016D000AEB116F8010B21684860E08C401EE08432
:1016E000E08C4B464FF0000200970028EBD14FF002
:1016F0004001204600F08AFA30B10320D7E735F8E0
:10170000020BC0F30800E6E7202084F83D0000202B
:10171000CDE70220CBE77047FEE70000154808B58B
:10172000016841F080010160016801F080010091D1
:10173000016841F001010160016801F001010091BF
:10174000016841F002010160016801F002010091AD
:10175000016841F004010160016801F00401009199
:10176000016841F008010160006800F00800009085
:1017700008BD0000303802401CB500240F4800941A
:101780000D490194016043F67F61C0E901146321B2
:10179000C16080218161FFF79BFB08B1FEF791FEDC
:1017A0000094694605480194FFF74AFB002801D0E0
:1017B000FEF787FE1CBD000000100040180000204E
:1017C0000C4810B50A4901604FF4165141600021E0
:1017D00081600C22C160C0E904128161C161FFF720
:1017E00001FE002803D0BDE81040FEF76ABE10BD20
:1017F00000500040600000200C4810B50A4901600C
:101800004FF4E1314160002181600C22C160C0E9E8
:1018100004128161C161FFF7E5FD002803D0BDE836
:101820001040FEF74EBE10BD00440040A400002052
:101830000C4810B50A4901604FF4E13141600021C4
:1018400081600C22C160C0E904128161C161FFF7AF
:10185000C9FD002803D0BDE81040FEF732BE10BD20
:1018600000480040E8000020FEE7FEE770477047B0
:10187000FEF794BF10B592B030216846FEF7BCFD6C
:1018800014210CA8FEF7B8FD17480024016841F0A8
:1018900080510160006800F0805011901348016889
:1018A00041F4804101600068069400F4804011908A
:1018B0000220009001200390102004906846FFF75A
:1018C000F3F808B172B6FEE70F20CDE90C040E94D0
:1018D0000F9400210CA81094FEF7FAFF002801D005
:1018E00072B6FEE712B010BD4038024000700040F2
:1018F0000248016841F470010160704788ED00E022
:101900000148FFF772BB000018000020F0B5026824
:10191000254C264D264E274F274B4FF0804CA0429A
:1019200009D0604507D0A84205D0B04203D0B842E4
:1019300001D0984204D122F0700E4A6842EA0E02A9
:10194000A0421BD0604519D0A84217D0B04215D094
:10195000B84213D0984211D0184DA8420ED0184D5D
:10196000A8420BD0174DA84208D0174DA84205D069
:10197000164DA84202D0164DA84203D122F440755C
:10198000CA682A434D6922F080022A4302608A68AD
:10199000C2620A688262A04201D0984201D10969FC
:1019A000016301214161F0BD0000014000040040DD
:1019B00000080040000C00400004014000400140CD
:1019C000004401400048014000180040001C004055
:1019D000002000400148FFF7D1BB0000600000205C
:1019E00010B5806B0021C185C184FFF7C1FB10BD1C
:1019F00001680C3151E8002F22F4907241E8002375
:101A0000002BF5D10168143151E8002F22F00102BA
:101A100041E80023002BF5D1016B012909D10168B0
:101A20000C3151E8002F22F0100241E80023002B76
:101A3000F5D1202180F83E1000210163704708B5E0
:101A400090F83E10222901D0022008BD82684FF490
:101A500080539A4201D1016921B1816A9A421BD017
:101A60004AB10AE00268816A5268C2F308020A8039
:101A7000816A891C08E0026972B10268526802F04A
:101A80007F020A70816A491C8162C18D491E090466
:101A9000090CC18503D019E002685268F1E70168BA
:101AA000CA6822F02002CA600168CA6822F4807203
:101AB000CA6001684A6922F001024A61202180F867
:101AC0003E10016B012903D0FFF7C0FD002008BDC7
:101AD0000021016301680C3151E8002F22F010024F
:101AE00041E80023002BF5D101680A68D20602D52F
:101AF0000A6849680091818DFFF739FBE6E700002D
:101B000070B5044600680169E26821F44051114350
:101B100001612169A068E2690843616911430843D2
:101B20002168CA6849F20C639A430243CA6020687C
:101B30004169A26921F44071114341613149206832
:101B4000884202D03049884202D1FEF76BFF01E0A3
:101B5000FEF758FFE2690023192164253226B2F509
:101B6000004F626828D0A0FB0101930F9200FEF79E
:101B70007BFB0146B0FBF5F06FF01802504301EB20
:101B8000800006EB0010B0FBF5F000F0F002B1FBB6
:101B9000F5F002EB0012B1FBF5F06FF018035843BB
:101BA00001EB800006EB0010B0FBF5F000F00F0039
:101BB00021681044886070BDA0FB010192185B4150
:101BC000FEF752FB0146B0FBF5F00201B1FBF5F068
:101BD0006FF01803584301EB800006EBC000B0FB28
:101BE000F5F000F0F80002EB4002B1FBF5F05843CD
:101BF00001EB800006EBC000B0FBF5F000F0070041
:101C0000D6E7000000100140001401402DE9F0412A
:101C1000984617460E460446069D27E0681C25D0C8
:101C20002DB1FEF7B5FDA0EB0800A8421ED9206833
:101C30000C3050E8001F21F4D07140E80012002A57
:101C4000F5D12068143050E8001F21F0010140E870
:101C50000012002AF5D1202084F83D0084F83E00CF
:101C6000002084F83C000320BDE8F0812068006873
:101C700036EA000004D00020B842CFD00020F3E7BD
:101C80000120F9E70148FFF779BA0000A40000201D
:101C90000148FFF773BA0000E8000020FEE70907DB
:101CA000090E002804DB00F1E02080F800147047E2
:101CB00000F00F0000F1E02080F8141D70470000D4
:101CC00086B0FEF773FDFFF7D5FDFFF727FD002275
:101CD00001212620FEF7CAFD002201212720FEF760
:101CE000C5FDFFF789FDFFF7A3FD00221146362051
:101CF000FEF7BCFD3620FEF7ABFDFFF73DFDFFF71D
:101D00005FFD002202213520FEF7B0FD3520FEF7F1
:101D10009FFD1148FFF728F900F02EF86420FEF728
:101D20002DFC14220DA16846FEF734FB6846FEF731
:101D300012FB82B2642369460D48FFF793FC0D4CF9
:101D40000025207818B12570094800F0AFF80A2066
:101D5000FEF714FCF5E70000180000205241572060
:101D6000434F4E54524F4C204D4F44450D0A0000F6
:101D700060000020000000201FB51FA16A46D1E9C5
:101D80000001CDE9000100210846135C401C194404
:101D9000C9B20428F9DB8DF804104FF0FF34234654
:101DA000052269461648FFF75DFC6420FEF7E6FB56
:101DB0000A220121124800F062F912A102AAD1E917
:101DC0000001CDE9020100210846135C401C1944C2
:101DD000C9B20428F9DB8DF80C102346052202A9AC
:101DE0000A48FFF73FFC6420FEF7C8FB0A220221E5
:101DF000064800F044F91FBD3E88010000000000C5
:101E0000A40000203E88020000000000E80000203E
:101E100030B523A22DED028B0546D2E9000287B032
:101E20000024CDE900028DF80210BFEE008A8DF883
:101E3000044021464FEA0D009DF80420435C491CF4
:101E40001A448DF804200429F6DB01466423052298
:101E50002846FFF707FC059400BF00BF00BF0598A8
:101E6000401C0590C828F7D3C8230A2202A9284697
:101E7000FFF78CFB68B99DF81010DDF80D00DFED61
:101E80000A0A61F31F6000EE100AB8EE400A80EE05
:101E9000208A07B0B0EE480ABDEC028B30BD0000CE
:101EA0003E940000000000000000C84270B54C4D98
:101EB00006462DED028B82B02C4601214948FFF7E2
:101EC000A7FFB0EE408A1420FEF758FB02214648D7
:101ED000FFF79EFFB5EEC08A4FF47A71F1EE10FA6B
:101EE0002CDB18EE100A414A1044B0F5F01F08D858
:101EF000DFED3F0A9FED3F1A78EE600A60EE810A3F
:101F00000DE0B5EEC08AF1EE10FA0EDB18EE100A05
:101F1000394A904209DCF3EE090A68EE200AFDEE28
:101F2000E00A10EE900A05B208E018EE100A2F4AF7
:101F30005242904201DA314D00E00D46B5EEC00A42
:101F4000F1EE10FA29DB10EE100A2D4A1044B0F51C
:101F5000702F0FD8DFED2B0A9FED2B1A70EE600A61
:101F60009FED2A0A00EE810ABDEEC00A10EE100AAB
:101F700004B212E0B5EEC00AF1EE10FA04DB10EE86
:101F8000100A234A904207DD10EE100A1C4A524202
:101F9000904201DA0C4600E0002402208DF8000097
:101FA000280A8DF801008DF80250200A8DF80300F0
:101FB0008DF8044003208DF805003046FFF7D9F86E
:101FC0002028FAD16423062269463046FFF74AFBEF
:101FD0001E20FEF7D3FA02B0BDEC028B70BD0000EC
:101FE00030F8FFFFA4000020E800002000006ABCD9
:101FF0000000B443555585410000204218FCFFFF06
:1020000000005BBC0000A543555505C200007A44A2
:1020100000003442FEB500243E268DF800608DF8A5
:102020000110089D8DF802208DF8033021466E4680
:10203000725C491C2244D4B20429F9DB8DF80440B7
:10204000002103E06A5C7418491C62719942F9DB53
:102050000022114603E06C5C491C2244D2B2994232
:10206000F9DB1BB1F1184A71012100E00021CA1807
:102070004FF0FF333146521DFFF7F4FAFEBD1CB599
:1020800002EBC20303EB02124FF6FF7303EA820373
:1020900000228DF804208DF805301B0A8DF80630DB
:1020A0008DF8072001AA00920A460423A521FFF714
:1020B000B1FF1CBD4FF04070E1EE100A7047000008
:1020C00000000000000001020304060708090000E8
:1020D0000000010203040000F820000800000020B6
:1020E00018000000C401000810210008180000209A
:1020F00078070000E0010008000000000000000078
:102100000100000010000000000000000024F400A6
:040000050800018965
:00000001FF
